{
  "_format": "hh-sol-artifact-1",
  "contractName": "SpaceToken",
  "sourceName": "contracts/SpaceToken.sol",
  "abi": [
    {
      "inputs": [
        {
          "internalType": "string",
          "name": "baseURI",
          "type": "string"
        }
      ],
      "stateMutability": "nonpayable",
      "type": "constructor"
    },
    {
      "anonymous": false,
      "inputs": [
        {
          "indexed": true,
          "internalType": "address",
          "name": "owner",
          "type": "address"
        },
        {
          "indexed": true,
          "internalType": "address",
          "name": "approved",
          "type": "address"
        },
        {
          "indexed": true,
          "internalType": "uint256",
          "name": "tokenId",
          "type": "uint256"
        }
      ],
      "name": "Approval",
      "type": "event"
    },
    {
      "anonymous": false,
      "inputs": [
        {
          "indexed": true,
          "internalType": "address",
          "name": "owner",
          "type": "address"
        },
        {
          "indexed": true,
          "internalType": "address",
          "name": "operator",
          "type": "address"
        },
        {
          "indexed": false,
          "internalType": "bool",
          "name": "approved",
          "type": "bool"
        }
      ],
      "name": "ApprovalForAll",
      "type": "event"
    },
    {
      "anonymous": false,
      "inputs": [
        {
          "indexed": true,
          "internalType": "address",
          "name": "previousOwner",
          "type": "address"
        },
        {
          "indexed": true,
          "internalType": "address",
          "name": "newOwner",
          "type": "address"
        }
      ],
      "name": "OwnershipTransferred",
      "type": "event"
    },
    {
      "anonymous": false,
      "inputs": [
        {
          "indexed": true,
          "internalType": "address",
          "name": "from",
          "type": "address"
        },
        {
          "indexed": true,
          "internalType": "address",
          "name": "to",
          "type": "address"
        },
        {
          "indexed": true,
          "internalType": "uint256",
          "name": "tokenId",
          "type": "uint256"
        }
      ],
      "name": "Transfer",
      "type": "event"
    },
    {
      "inputs": [
        {
          "internalType": "address",
          "name": "to",
          "type": "address"
        },
        {
          "internalType": "uint256",
          "name": "tokenId",
          "type": "uint256"
        }
      ],
      "name": "approve",
      "outputs": [],
      "stateMutability": "nonpayable",
      "type": "function"
    },
    {
      "inputs": [
        {
          "internalType": "address",
          "name": "owner",
          "type": "address"
        }
      ],
      "name": "balanceOf",
      "outputs": [
        {
          "internalType": "uint256",
          "name": "",
          "type": "uint256"
        }
      ],
      "stateMutability": "view",
      "type": "function"
    },
    {
      "inputs": [
        {
          "internalType": "uint256",
          "name": "tokenId",
          "type": "uint256"
        }
      ],
      "name": "burn",
      "outputs": [],
      "stateMutability": "nonpayable",
      "type": "function"
    },
    {
      "inputs": [],
      "name": "currentTokenId",
      "outputs": [
        {
          "internalType": "uint256",
          "name": "",
          "type": "uint256"
        }
      ],
      "stateMutability": "view",
      "type": "function"
    },
    {
      "inputs": [
        {
          "internalType": "uint256",
          "name": "tokenId",
          "type": "uint256"
        }
      ],
      "name": "getApproved",
      "outputs": [
        {
          "internalType": "address",
          "name": "",
          "type": "address"
        }
      ],
      "stateMutability": "view",
      "type": "function"
    },
    {
      "inputs": [
        {
          "internalType": "uint256",
          "name": "tokenId",
          "type": "uint256"
        }
      ],
      "name": "getHolderSecretURI",
      "outputs": [
        {
          "internalType": "string",
          "name": "",
          "type": "string"
        }
      ],
      "stateMutability": "view",
      "type": "function"
    },
    {
      "inputs": [
        {
          "internalType": "address",
          "name": "owner",
          "type": "address"
        },
        {
          "internalType": "address",
          "name": "operator",
          "type": "address"
        }
      ],
      "name": "isApprovedForAll",
      "outputs": [
        {
          "internalType": "bool",
          "name": "",
          "type": "bool"
        }
      ],
      "stateMutability": "view",
      "type": "function"
    },
    {
      "inputs": [
        {
          "internalType": "address",
          "name": "_to",
          "type": "address"
        },
        {
          "internalType": "string",
          "name": "_tokenSecretURI",
          "type": "string"
        }
      ],
      "name": "mint721Token",
      "outputs": [],
      "stateMutability": "nonpayable",
      "type": "function"
    },
    {
      "inputs": [
        {
          "internalType": "uint8",
          "name": "_number",
          "type": "uint8"
        }
      ],
      "name": "mintBatch721Token",
      "outputs": [],
      "stateMutability": "nonpayable",
      "type": "function"
    },
    {
      "inputs": [],
      "name": "name",
      "outputs": [
        {
          "internalType": "string",
          "name": "",
          "type": "string"
        }
      ],
      "stateMutability": "view",
      "type": "function"
    },
    {
      "inputs": [],
      "name": "owner",
      "outputs": [
        {
          "internalType": "address",
          "name": "",
          "type": "address"
        }
      ],
      "stateMutability": "view",
      "type": "function"
    },
    {
      "inputs": [
        {
          "internalType": "uint256",
          "name": "tokenId",
          "type": "uint256"
        }
      ],
      "name": "ownerOf",
      "outputs": [
        {
          "internalType": "address",
          "name": "",
          "type": "address"
        }
      ],
      "stateMutability": "view",
      "type": "function"
    },
    {
      "inputs": [
        {
          "internalType": "address",
          "name": "from",
          "type": "address"
        },
        {
          "internalType": "address",
          "name": "to",
          "type": "address"
        },
        {
          "internalType": "uint256",
          "name": "tokenId",
          "type": "uint256"
        }
      ],
      "name": "safeTransferFrom",
      "outputs": [],
      "stateMutability": "nonpayable",
      "type": "function"
    },
    {
      "inputs": [
        {
          "internalType": "address",
          "name": "from",
          "type": "address"
        },
        {
          "internalType": "address",
          "name": "to",
          "type": "address"
        },
        {
          "internalType": "uint256",
          "name": "tokenId",
          "type": "uint256"
        },
        {
          "internalType": "bytes",
          "name": "_data",
          "type": "bytes"
        }
      ],
      "name": "safeTransferFrom",
      "outputs": [],
      "stateMutability": "nonpayable",
      "type": "function"
    },
    {
      "inputs": [
        {
          "internalType": "address",
          "name": "operator",
          "type": "address"
        },
        {
          "internalType": "bool",
          "name": "approved",
          "type": "bool"
        }
      ],
      "name": "setApprovalForAll",
      "outputs": [],
      "stateMutability": "nonpayable",
      "type": "function"
    },
    {
      "inputs": [
        {
          "internalType": "string",
          "name": "baseURI",
          "type": "string"
        }
      ],
      "name": "setBaseURI",
      "outputs": [],
      "stateMutability": "nonpayable",
      "type": "function"
    },
    {
      "inputs": [
        {
          "internalType": "uint256",
          "name": "tokenId",
          "type": "uint256"
        },
        {
          "internalType": "string",
          "name": "_tokenSecretURI",
          "type": "string"
        }
      ],
      "name": "setTokenOnlyHolderURI",
      "outputs": [],
      "stateMutability": "nonpayable",
      "type": "function"
    },
    {
      "inputs": [
        {
          "internalType": "bytes4",
          "name": "interfaceId",
          "type": "bytes4"
        }
      ],
      "name": "supportsInterface",
      "outputs": [
        {
          "internalType": "bool",
          "name": "",
          "type": "bool"
        }
      ],
      "stateMutability": "view",
      "type": "function"
    },
    {
      "inputs": [],
      "name": "symbol",
      "outputs": [
        {
          "internalType": "string",
          "name": "",
          "type": "string"
        }
      ],
      "stateMutability": "view",
      "type": "function"
    },
    {
      "inputs": [
        {
          "internalType": "uint256",
          "name": "index",
          "type": "uint256"
        }
      ],
      "name": "tokenByIndex",
      "outputs": [
        {
          "internalType": "uint256",
          "name": "",
          "type": "uint256"
        }
      ],
      "stateMutability": "view",
      "type": "function"
    },
    {
      "inputs": [
        {
          "internalType": "address",
          "name": "owner",
          "type": "address"
        },
        {
          "internalType": "uint256",
          "name": "index",
          "type": "uint256"
        }
      ],
      "name": "tokenOfOwnerByIndex",
      "outputs": [
        {
          "internalType": "uint256",
          "name": "",
          "type": "uint256"
        }
      ],
      "stateMutability": "view",
      "type": "function"
    },
    {
      "inputs": [
        {
          "internalType": "uint256",
          "name": "tokenId",
          "type": "uint256"
        }
      ],
      "name": "tokenURI",
      "outputs": [
        {
          "internalType": "string",
          "name": "",
          "type": "string"
        }
      ],
      "stateMutability": "view",
      "type": "function"
    },
    {
      "inputs": [
        {
          "internalType": "address",
          "name": "_owner",
          "type": "address"
        }
      ],
      "name": "tokensOfOwner",
      "outputs": [
        {
          "internalType": "uint256[]",
          "name": "",
          "type": "uint256[]"
        }
      ],
      "stateMutability": "view",
      "type": "function"
    },
    {
      "inputs": [],
      "name": "totalSupply",
      "outputs": [
        {
          "internalType": "uint256",
          "name": "",
          "type": "uint256"
        }
      ],
      "stateMutability": "view",
      "type": "function"
    },
    {
      "inputs": [
        {
          "internalType": "address",
          "name": "from",
          "type": "address"
        },
        {
          "internalType": "address",
          "name": "to",
          "type": "address"
        },
        {
          "internalType": "uint256",
          "name": "tokenId",
          "type": "uint256"
        }
      ],
      "name": "transferFrom",
      "outputs": [],
      "stateMutability": "nonpayable",
      "type": "function"
    },
    {
      "inputs": [
        {
          "internalType": "address",
          "name": "newOwner",
          "type": "address"
        }
      ],
      "name": "transferOwnership",
      "outputs": [],
      "stateMutability": "nonpayable",
      "type": "function"
    }
  ],
  "bytecode": "0x60806040523480156200001157600080fd5b506040516200263b3803806200263b83398101604081905262000034916200022f565b604080518082018252600b81526a43525950544f535041434560a81b6020808301918252835180850190945260038452624e435360e81b908401528151919291620000829160009162000189565b5080516200009890600190602084019062000189565b5050506000620000ad6200010d60201b60201c565b600a80546001600160a01b0319166001600160a01b038316908117909155604051919250906000907f8be0079c531659141344cd1fd0a4f28419497f9722a3daafe3b4186f6b6457e0908290a350620001068162000111565b5062000358565b3390565b600a546001600160a01b03163314620001705760405162461bcd60e51b815260206004820181905260248201527f4f776e61626c653a2063616c6c6572206973206e6f7420746865206f776e6572604482015260640160405180910390fd5b80516200018590600b90602084019062000189565b5050565b828054620001979062000305565b90600052602060002090601f016020900481019282620001bb576000855562000206565b82601f10620001d657805160ff191683800117855562000206565b8280016001018555821562000206579182015b8281111562000206578251825591602001919060010190620001e9565b506200021492915062000218565b5090565b5b8082111562000214576000815560010162000219565b6000602080838503121562000242578182fd5b82516001600160401b038082111562000259578384fd5b818501915085601f8301126200026d578384fd5b81518181111562000282576200028262000342565b604051601f8201601f19908116603f01168101908382118183101715620002ad57620002ad62000342565b816040528281528886848701011115620002c5578687fd5b8693505b82841015620002e85784840186015181850187015292850192620002c9565b82841115620002f957868684830101525b98975050505050505050565b600181811c908216806200031a57607f821691505b602082108114156200033c57634e487b7160e01b600052602260045260246000fd5b50919050565b634e487b7160e01b600052604160045260246000fd5b6122d380620003686000396000f3fe608060405234801561001057600080fd5b506004361061018d5760003560e01c80636352211e116100de57806395d89b4111610097578063c87b56dd11610071578063c87b56dd1461035e578063d758fc4914610371578063e985e9c514610384578063f2fde38b146103c057600080fd5b806395d89b4114610330578063a22cb46514610338578063b88d4fde1461034b57600080fd5b80636352211e146102b35780636f851164146102c657806370a08231146102d95780637ad68e6b146102ec5780638462151c146102ff5780638da5cb5b1461031f57600080fd5b806318160ddd1161014b57806342842e0e1161012557806342842e0e1461026757806342966c681461027a5780634f6ccce71461028d57806355f804b3146102a057600080fd5b806318160ddd1461023957806323b872dd146102415780632f745c591461025457600080fd5b80629a9b7b14610192578063010a3a04146101ae57806301ffc9a7146101c357806306fdde03146101e6578063081812fc146101fb578063095ea7b314610226575b600080fd5b61019b600c5481565b6040519081526020015b60405180910390f35b6101c16101bc366004611ec0565b6103d3565b005b6101d66101d1366004611e3d565b6104a7565b60405190151581526020016101a5565b6101ee6104d2565b6040516101a59190611fec565b61020e610209366004611ea8565b610564565b6040516001600160a01b0390911681526020016101a5565b6101c1610234366004611e14565b6105ec565b60085461019b565b6101c161024f366004611cda565b610702565b61019b610262366004611e14565b610733565b6101c1610275366004611cda565b6107c9565b6101c1610288366004611ea8565b6107e4565b61019b61029b366004611ea8565b61086f565b6101c16102ae366004611e75565b610910565b61020e6102c1366004611ea8565b610951565b6101c16102d4366004611eef565b6109c8565b61019b6102e7366004611c8e565b610a2e565b6101c16102fa366004611dc8565b610ab5565b61031261030d366004611c8e565b610b4f565b6040516101a59190611fa8565b600a546001600160a01b031661020e565b6101ee610c0d565b6101c1610346366004611d8e565b610c1c565b6101c1610359366004611d15565b610ce1565b6101ee61036c366004611ea8565b610d13565b6101ee61037f366004611ea8565b610dde565b6101d6610392366004611ca8565b6001600160a01b03918216600090815260056020908152604080832093909416825291909152205460ff1690565b6101c16103ce366004611c8e565b610f73565b816103dd81610951565b6001600160a01b0316336001600160a01b0316146104165760405162461bcd60e51b815260040161040d90612084565b60405180910390fd5b61041f8361105e565b6104825760405162461bcd60e51b815260206004820152602e60248201527f45524337323155524953746f726167653a2055524920736574206f66206e6f6e60448201526d32bc34b9ba32b73a103a37b5b2b760911b606482015260840161040d565b6000838152600d6020908152604090912083516104a192850190611b44565b50505050565b60006001600160e01b0319821663780e9d6360e01b14806104cc57506104cc8261107b565b92915050565b6060600080546104e1906121c1565b80601f016020809104026020016040519081016040528092919081815260200182805461050d906121c1565b801561055a5780601f1061052f5761010080835404028352916020019161055a565b820191906000526020600020905b81548152906001019060200180831161053d57829003601f168201915b5050505050905090565b600061056f8261105e565b6105d05760405162461bcd60e51b815260206004820152602c60248201527f4552433732313a20617070726f76656420717565727920666f72206e6f6e657860448201526b34b9ba32b73a103a37b5b2b760a11b606482015260840161040d565b506000908152600460205260409020546001600160a01b031690565b60006105f782610951565b9050806001600160a01b0316836001600160a01b031614156106655760405162461bcd60e51b815260206004820152602160248201527f4552433732313a20617070726f76616c20746f2063757272656e74206f776e656044820152603960f91b606482015260840161040d565b336001600160a01b038216148061068157506106818133610392565b6106f35760405162461bcd60e51b815260206004820152603860248201527f4552433732313a20617070726f76652063616c6c6572206973206e6f74206f7760448201527f6e6572206e6f7220617070726f76656420666f7220616c6c0000000000000000606482015260840161040d565b6106fd83836110cb565b505050565b61070c3382611139565b6107285760405162461bcd60e51b815260040161040d90612101565b6106fd838383611223565b600061073e83610a2e565b82106107a05760405162461bcd60e51b815260206004820152602b60248201527f455243373231456e756d657261626c653a206f776e657220696e646578206f7560448201526a74206f6620626f756e647360a81b606482015260840161040d565b506001600160a01b03919091166000908152600660209081526040808320938352929052205490565b6106fd83838360405180602001604052806000815250610ce1565b6107ed81610951565b6001600160a01b0316336001600160a01b0316146108635760405162461bcd60e51b815260206004820152602d60248201527f4f6e6c792074686520546f6b656e496420686f6c6465722063616e206275726e60448201526c081d1a1a5cc81d1bdad95b9259609a1b606482015260840161040d565b61086c816113ce565b50565b600061087a60085490565b82106108dd5760405162461bcd60e51b815260206004820152602c60248201527f455243373231456e756d657261626c653a20676c6f62616c20696e646578206f60448201526b7574206f6620626f756e647360a01b606482015260840161040d565b600882815481106108fe57634e487b7160e01b600052603260045260246000fd5b90600052602060002001549050919050565b600a546001600160a01b0316331461093a5760405162461bcd60e51b815260040161040d906120cc565b805161094d90600b906020840190611b44565b5050565b6000818152600260205260408120546001600160a01b0316806104cc5760405162461bcd60e51b815260206004820152602960248201527f4552433732313a206f776e657220717565727920666f72206e6f6e657869737460448201526832b73a103a37b5b2b760b91b606482015260840161040d565b600a546001600160a01b031633146109f25760405162461bcd60e51b815260040161040d906120cc565b60005b8160ff168160ff16101561094d57610a1c3360405180602001604052806000815250610ab5565b80610a2681612211565b9150506109f5565b60006001600160a01b038216610a995760405162461bcd60e51b815260206004820152602a60248201527f4552433732313a2062616c616e636520717565727920666f7220746865207a65604482015269726f206164647265737360b01b606482015260840161040d565b506001600160a01b031660009081526003602052604090205490565b600a546001600160a01b03163314610adf5760405162461bcd60e51b815260040161040d906120cc565b610b17604051806040016040528060138152602001724d696e7420746f6b656e20257320746f20257360681b815250600c5484611475565b610b2382600c546114bc565b805115610b3657610b36600c54826103d3565b600c8054906000610b46836121f6565b91905055505050565b60606000610b5c83610a2e565b905060008167ffffffffffffffff811115610b8757634e487b7160e01b600052604160045260246000fd5b604051908082528060200260200182016040528015610bb0578160200160208202803683370190505b50905060005b82811015610c0557610bc88582610733565b828281518110610be857634e487b7160e01b600052603260045260246000fd5b602090810291909101015280610bfd816121f6565b915050610bb6565b509392505050565b6060600180546104e1906121c1565b6001600160a01b038216331415610c755760405162461bcd60e51b815260206004820152601960248201527f4552433732313a20617070726f766520746f2063616c6c657200000000000000604482015260640161040d565b3360008181526005602090815260408083206001600160a01b03871680855290835292819020805460ff191686151590811790915590519081529192917f17307eab39ab6107e8899845ad3d59bd9653f200f220920489ca2b5937696c31910160405180910390a35050565b610ceb3383611139565b610d075760405162461bcd60e51b815260040161040d90612101565b6104a1848484846114d6565b6060610d1e8261105e565b610d825760405162461bcd60e51b815260206004820152602f60248201527f4552433732314d657461646174613a2055524920717565727920666f72206e6f60448201526e3732bc34b9ba32b73a103a37b5b2b760891b606482015260840161040d565b6000610d8c611509565b90506000815111610dac5760405180602001604052806000815250610dd7565b80610db684611518565b604051602001610dc7929190611f3c565b6040516020818303038152906040525b9392505050565b606081610dea81610951565b6001600160a01b0316336001600160a01b031614610e1a5760405162461bcd60e51b815260040161040d90612084565b610e238361105e565b610e6f5760405162461bcd60e51b815260206004820152601f60248201527f55524920717565727920666f72206e6f6e6578697374656e7420746f6b656e00604482015260640161040d565b6000838152600d602052604081208054610e88906121c1565b80601f0160208091040260200160405190810160405280929190818152602001828054610eb4906121c1565b8015610f015780601f10610ed657610100808354040283529160200191610f01565b820191906000526020600020905b815481529060010190602001808311610ee457829003601f168201915b505050505090506000610f12611509565b9050805160001415610f2657509150610f6d565b815115610f58578082604051602001610f40929190611f3c565b60405160208183030381529060405293505050610f6d565b60405180602001604052806000815250935050505b50919050565b600a546001600160a01b03163314610f9d5760405162461bcd60e51b815260040161040d906120cc565b6001600160a01b0381166110025760405162461bcd60e51b815260206004820152602660248201527f4f776e61626c653a206e6577206f776e657220697320746865207a65726f206160448201526564647265737360d01b606482015260840161040d565b600a546040516001600160a01b038084169216907f8be0079c531659141344cd1fd0a4f28419497f9722a3daafe3b4186f6b6457e090600090a3600a80546001600160a01b0319166001600160a01b0392909216919091179055565b6000908152600260205260409020546001600160a01b0316151590565b60006001600160e01b031982166380ac58cd60e01b14806110ac57506001600160e01b03198216635b5e139f60e01b145b806104cc57506301ffc9a760e01b6001600160e01b03198316146104cc565b600081815260046020526040902080546001600160a01b0319166001600160a01b038416908117909155819061110082610951565b6001600160a01b03167f8c5be1e5ebec7d5bd14f71427d1e84f3dd0314c0f7b2291e5b200ac8c7c3b92560405160405180910390a45050565b60006111448261105e565b6111a55760405162461bcd60e51b815260206004820152602c60248201527f4552433732313a206f70657261746f7220717565727920666f72206e6f6e657860448201526b34b9ba32b73a103a37b5b2b760a11b606482015260840161040d565b60006111b083610951565b9050806001600160a01b0316846001600160a01b031614806111eb5750836001600160a01b03166111e084610564565b6001600160a01b0316145b8061121b57506001600160a01b0380821660009081526005602090815260408083209388168352929052205460ff165b949350505050565b826001600160a01b031661123682610951565b6001600160a01b03161461129e5760405162461bcd60e51b815260206004820152602960248201527f4552433732313a207472616e73666572206f6620746f6b656e2074686174206960448201526839903737ba1037bbb760b91b606482015260840161040d565b6001600160a01b0382166113005760405162461bcd60e51b8152602060048201526024808201527f4552433732313a207472616e7366657220746f20746865207a65726f206164646044820152637265737360e01b606482015260840161040d565b61130b838383611632565b6113166000826110cb565b6001600160a01b038316600090815260036020526040812080546001929061133f90849061217e565b90915550506001600160a01b038216600090815260036020526040812080546001929061136d908490612152565b909155505060008181526002602052604080822080546001600160a01b0319166001600160a01b0386811691821790925591518493918716917fddf252ad1be2c89b69c2b068fc378daa952ba7f163c4a11628f55a4df523b3ef91a4505050565b60006113d982610951565b90506113e781600084611632565b6113f26000836110cb565b6001600160a01b038116600090815260036020526040812080546001929061141b90849061217e565b909155505060008281526002602052604080822080546001600160a01b0319169055518391906001600160a01b038416907fddf252ad1be2c89b69c2b068fc378daa952ba7f163c4a11628f55a4df523b3ef908390a45050565b6106fd83838360405160240161148d93929190611fff565b60408051601f198184030181529190526020810180516001600160e01b031663e3849f7960e01b1790526116ea565b61094d82826040518060200160405280600081525061170b565b6114e1848484611223565b6114ed8484848461173e565b6104a15760405162461bcd60e51b815260040161040d90612032565b6060600b80546104e1906121c1565b60608161153c5750506040805180820190915260018152600360fc1b602082015290565b8160005b81156115665780611550816121f6565b915061155f9050600a8361216a565b9150611540565b60008167ffffffffffffffff81111561158f57634e487b7160e01b600052604160045260246000fd5b6040519080825280601f01601f1916602001820160405280156115b9576020820181803683370190505b5090505b841561121b576115ce60018361217e565b91506115db600a86612231565b6115e6906030612152565b60f81b81838151811061160957634e487b7160e01b600052603260045260246000fd5b60200101906001600160f81b031916908160001a90535061162b600a8661216a565b94506115bd565b6001600160a01b03831661168d5761168881600880546000838152600960205260408120829055600182018355919091527ff3f7a9fe364faab93b216da50a3214154f22a0a2b415b23a84c8169e8b636ee30155565b6116b0565b816001600160a01b0316836001600160a01b0316146116b0576116b0838261184b565b6001600160a01b0382166116c7576106fd816118e8565b826001600160a01b0316826001600160a01b0316146106fd576106fd82826119c1565b80516a636f6e736f6c652e6c6f67602083016000808483855afa5050505050565b6117158383611a05565b611722600084848461173e565b6106fd5760405162461bcd60e51b815260040161040d90612032565b60006001600160a01b0384163b1561184057604051630a85bd0160e11b81526001600160a01b0385169063150b7a0290611782903390899088908890600401611f6b565b602060405180830381600087803b15801561179c57600080fd5b505af19250505080156117cc575060408051601f3d908101601f191682019092526117c991810190611e59565b60015b611826573d8080156117fa576040519150601f19603f3d011682016040523d82523d6000602084013e6117ff565b606091505b50805161181e5760405162461bcd60e51b815260040161040d90612032565b805181602001fd5b6001600160e01b031916630a85bd0160e11b14905061121b565b506001949350505050565b6000600161185884610a2e565b611862919061217e565b6000838152600760205260409020549091508082146118b5576001600160a01b03841660009081526006602090815260408083208584528252808320548484528184208190558352600790915290208190555b5060009182526007602090815260408084208490556001600160a01b039094168352600681528383209183525290812055565b6008546000906118fa9060019061217e565b6000838152600960205260408120546008805493945090928490811061193057634e487b7160e01b600052603260045260246000fd5b90600052602060002001549050806008838154811061195f57634e487b7160e01b600052603260045260246000fd5b60009182526020808320909101929092558281526009909152604080822084905585825281205560088054806119a557634e487b7160e01b600052603160045260246000fd5b6001900381819060005260206000200160009055905550505050565b60006119cc83610a2e565b6001600160a01b039093166000908152600660209081526040808320868452825280832085905593825260079052919091209190915550565b6001600160a01b038216611a5b5760405162461bcd60e51b815260206004820181905260248201527f4552433732313a206d696e7420746f20746865207a65726f2061646472657373604482015260640161040d565b611a648161105e565b15611ab15760405162461bcd60e51b815260206004820152601c60248201527f4552433732313a20746f6b656e20616c7265616479206d696e74656400000000604482015260640161040d565b611abd60008383611632565b6001600160a01b0382166000908152600360205260408120805460019290611ae6908490612152565b909155505060008181526002602052604080822080546001600160a01b0319166001600160a01b03861690811790915590518392907fddf252ad1be2c89b69c2b068fc378daa952ba7f163c4a11628f55a4df523b3ef908290a45050565b828054611b50906121c1565b90600052602060002090601f016020900481019282611b725760008555611bb8565b82601f10611b8b57805160ff1916838001178555611bb8565b82800160010185558215611bb8579182015b82811115611bb8578251825591602001919060010190611b9d565b50611bc4929150611bc8565b5090565b5b80821115611bc45760008155600101611bc9565b600067ffffffffffffffff80841115611bf857611bf8612271565b604051601f8501601f19908116603f01168101908282118183101715611c2057611c20612271565b81604052809350858152868686011115611c3957600080fd5b858560208301376000602087830101525050509392505050565b80356001600160a01b0381168114611c6a57600080fd5b919050565b600082601f830112611c7f578081fd5b610dd783833560208501611bdd565b600060208284031215611c9f578081fd5b610dd782611c53565b60008060408385031215611cba578081fd5b611cc383611c53565b9150611cd160208401611c53565b90509250929050565b600080600060608486031215611cee578081fd5b611cf784611c53565b9250611d0560208501611c53565b9150604084013590509250925092565b60008060008060808587031215611d2a578081fd5b611d3385611c53565b9350611d4160208601611c53565b925060408501359150606085013567ffffffffffffffff811115611d63578182fd5b8501601f81018713611d73578182fd5b611d8287823560208401611bdd565b91505092959194509250565b60008060408385031215611da0578182fd5b611da983611c53565b915060208301358015158114611dbd578182fd5b809150509250929050565b60008060408385031215611dda578182fd5b611de383611c53565b9150602083013567ffffffffffffffff811115611dfe578182fd5b611e0a85828601611c6f565b9150509250929050565b60008060408385031215611e26578182fd5b611e2f83611c53565b946020939093013593505050565b600060208284031215611e4e578081fd5b8135610dd781612287565b600060208284031215611e6a578081fd5b8151610dd781612287565b600060208284031215611e86578081fd5b813567ffffffffffffffff811115611e9c578182fd5b61121b84828501611c6f565b600060208284031215611eb9578081fd5b5035919050565b60008060408385031215611ed2578182fd5b82359150602083013567ffffffffffffffff811115611dfe578182fd5b600060208284031215611f00578081fd5b813560ff81168114610dd7578182fd5b60008151808452611f28816020860160208601612195565b601f01601f19169290920160200192915050565b60008351611f4e818460208801612195565b835190830190611f62818360208801612195565b01949350505050565b6001600160a01b0385811682528416602082015260408101839052608060608201819052600090611f9e90830184611f10565b9695505050505050565b6020808252825182820181905260009190848201906040850190845b81811015611fe057835183529284019291840191600101611fc4565b50909695505050505050565b602081526000610dd76020830184611f10565b6060815260006120126060830186611f10565b6020830194909452506001600160a01b0391909116604090910152919050565b60208082526032908201527f4552433732313a207472616e7366657220746f206e6f6e20455243373231526560408201527131b2b4bb32b91034b6b83632b6b2b73a32b960711b606082015260800190565b60208082526028908201527f4f6e6c792074686520546f6b656e496420686f6c6465722063616e2073656520604082015267746869732055524960c01b606082015260800190565b6020808252818101527f4f776e61626c653a2063616c6c6572206973206e6f7420746865206f776e6572604082015260600190565b60208082526031908201527f4552433732313a207472616e736665722063616c6c6572206973206e6f74206f6040820152701ddb995c881b9bdc88185c1c1c9bdd9959607a1b606082015260800190565b6000821982111561216557612165612245565b500190565b6000826121795761217961225b565b500490565b60008282101561219057612190612245565b500390565b60005b838110156121b0578181015183820152602001612198565b838111156104a15750506000910152565b600181811c908216806121d557607f821691505b60208210811415610f6d57634e487b7160e01b600052602260045260246000fd5b600060001982141561220a5761220a612245565b5060010190565b600060ff821660ff81141561222857612228612245565b60010192915050565b6000826122405761224061225b565b500690565b634e487b7160e01b600052601160045260246000fd5b634e487b7160e01b600052601260045260246000fd5b634e487b7160e01b600052604160045260246000fd5b6001600160e01b03198116811461086c57600080fdfea2646970667358221220d87ebd32d5ef7a0d0916fcb2291e3fab285a964065395f736bac17a40043912164736f6c63430008040033",
  "linkReferences": {},
  "deployedLinkReferences": {}
}